:100000000C948A030C94B2030C94B2030C94B203C4
:100010000C94B2030C94B2030C94B2030C94B2038C
:100020000C94B2030C94B2030C94900D0C94FF0D3D
:100030000C94B2030C94B2030C94B2030C94B2036C
:100040000C94B2030C94B2030C94B2030C94B2035C
:100050000C94B2030C94B2030C94B2030C943110C0
:100060000C94B2030C94B2030C94B2030C94B2033C
:100070000C94B2030C94B2030C94B2030C94B2032C
:100080000C947B100C94B2030C94B2030C94B20346
:100090000C94B2030C94B2030C94B2030C94B2030C
:1000A0000C94B2030C94B2030C94B2030000000051
:1000B000003E5B4F5B3E3E6B4F6B3E1C3E7C3E1CEE
:1000C000183C7E3C181C577D571C1C5E7F5E1C0034
:1000D000183C1800FFE7C3E7FF0018241800FFE7EB
:1000E000DBE7FF30483A060E2629792926407F05AE
:1000F0000507407F05253F5A3CE73C5A7F3E1C1CC4
:1001000008081C1C3E7F14227F22145F5F005F5F83
:1001100006097F017F006689956A6060606060946F
:10012000A2FFA29408047E040810207E2010080874
:100130002A1C08081C2A08081E101010100C1E0C7F
:100140001E0C30383E3830060E3E0E060000000011
:100150000000005F00000007000700147F147F14F8
:10016000242A7F2A1223130864623649562050003D
:1001700008070300001C2241000041221C002A1C29
:100180007F1C2A08083E0808008070300008080814
:100190000808000060600020100804023E51494534
:1001A0003E00427F400072494949462141494D3352
:1001B0001814127F1027454545393C4A49493141B9
:1001C000211109073649494936464949291E000087
:1001D00014000000403400000008142241141414DC
:1001E0001414004122140802015909063E415D59C8
:1001F0004E7C1211127C7F494949363E41414122D1
:100200007F4141413E7F494949417F090909013EFA
:10021000414151737F0808087F00417F4100204021
:10022000413F017F081422417F404040407F021C33
:10023000027F7F0408107F3E4141413E7F0909094A
:10024000063E4151215E7F09192946264949493216
:1002500003017F01033F4040403F1F2040201F3FDC
:100260004038403F63140814630304780403615961
:10027000494D43007F4141410204081020004141A3
:10028000417F04020102044040404040000307084F
:100290000020545478407F2844443838444444284B
:1002A000384444287F385454541800087E090218F2
:1002B000A4A49C787F0804047800447D400020407A
:1002C000403D007F1028440000417F40007C0478BE
:1002D00004787C080404783844444438FC18242406
:1002E0001818242418FC7C08040408485454542486
:1002F00004043F44243C4040207C1C2040201C3C03
:100300004030403C44281028444C9090907C4464F9
:10031000544C44000836410000007700000041368C
:10032000080002010204023C2623263C1EA1A16112
:10033000123A4040207A3854545559215555794144
:100340002154547841215554784020545579400C1B
:100350001E527212395555555939545454593955FC
:100360005454580000457C410002457D420001453F
:100370007C40F0292429F0F0282528F07C545545AC
:10038000002054547C547C0A097F4932494949323F
:100390003248484832324A4848303A4141217A3A54
:1003A00042402078009DA0A07D39444444393D401E
:1003B00040403D3C24FF2424487E4943662B2FFCCB
:1003C0002F2BFF0929F620C0887E09032054547979
:1003D000410000447D413048484A32384040227A4A
:1003E000007A0A0A727D0D19317D2629292F2826C7
:1003F0002929292630484D402038080808080808CF
:100400000808382F10C8ACBA2F102834FA00007B27
:10041000000008142A142222142A1408AA005500E5
:10042000AAAA55AA55AA000000FF00101010FF004C
:10043000141414FF001010FF00FF1010F010F0143F
:100440001414FC001414F700FF0000FF00FF141444
:10045000F404FC141417101F10101F101F14141490
:100460001F00101010F0000000001F101010101FCF
:1004700010101010F010000000FF101010101010DD
:10048000101010FF10000000FF140000FF00FF001C
:10049000001F10170000FC04F41414171017141494
:1004A000F404F40000FF00F714141414141414F7E7
:1004B00000F7141414171410101F101F141414F440
:1004C000141010F010F000001F101F0000001F1487
:1004D000000000FC140000F010F01010FF10FF14DA
:1004E0001414FF141010101F00000000F010FFFF84
:1004F000FFFFFFF0F0F0F0F0FFFFFF000000000052
:10050000FFFF0F0F0F0F0F38444438447C2A2A3E58
:10051000147E02020606027E027E02635549416392
:100520003844443C04407E201E2006027E0202998C
:10053000A5E7A5991C2A492A1C4C7201724C304A25
:100540004D4D303048784830BC625A463D3E4949AE
:1005500049007E0101017E2A2A2A2A2A44445F4456
:100560004440514A444040444A51400000FF010386
:10057000E080FF000008086B6B0836123624360650
:100580000F090F060000181800000010100030407E
:10059000FF0101001F01011E00191D1712003C3C44
:1005A0003C3C0000000000130180321180642601F1
:1005B00004B1020B14C0020800C10105C50241309C
:1005C000C701C1EC011B3A8155642A040000007F79
:1005D0002B040000009F3601C8B70100F20100E0C3
:1005E0008F282422312B0E53A5421618121A1403F9
:1005F00032E18F171B1D0E14112CA53D09272D2547
:100600002B3C3213800A2980FF03000000002400E5
:1006100027002A002D0030000000000025002800DF
:100620002B002E003100080B00020202000009041A
:100630000000010202000005240010010524010150
:1006400001042402060524060001070581031000A9
:100650004009040100020A000000070502024000F0
:100660000007058302400000040309041201000290
:10067000EF02014041233C000001010203014172ED
:100680006475696E6F204C4C430041726475696EED
:100690006F204573706C6F726100070605040100DE
:1006A000080A0B0C0D090000000023002600290099
:1006B0002C002F00040404040403040502020202B7
:1006C00004030202020206060606060604040202EB
:1006D00002040404080201104080401020408040C1
:1006E0008008020401804020100201108010204088
:1006F00040200000000200090F0000030401000C6C
:1007000000000000000000000000000000000000E9
:100710000000D61011241FBECFEFDAE0DEBFCDBF40
:1007200022E0ACE5B1E001C01D92A632B207E1F7CC
:1007300011E0A0E0B1E0E4E5F0E302C005900D9225
:10074000AC35B107D9F713E0CAE8D3E004C021976C
:10075000FE010E941C16C938D107C9F70E9430114A
:100760000C9428180C940000FC0180919A018823B5
:1007700011F13FB7F89482E08093E9002091F200F4
:10078000822F90E01816190614F481E090E0882377
:1007900039F0289844E6409399014091F100408354
:1007A000222339F02091F200211103C02BE620937F
:1007B000E8003FBF08958FEF9FEF08952FB7F8949B
:1007C00083E08093E9009091E800892F807295FF83
:1007D00004C09091F20080E4891B2FBF089580919E
:1007E000910181110DC082E080938D0184E080939E
:1007F0008E011092900110928F0181E080939101FF
:100800008DE891E00895CF93DF931F92CDB7DEB7C7
:100810006983DC01ED91FC910280F381E02D41E0E0
:1008200050E0BE016F5F7F4F09950F90DF91CF9130
:10083000089583E08093E9008091F200882319F005
:100840008AE38093E80008950E94DE0390E0089513
:10085000CF93DF931F92CDB7DEB7FC0184859585DA
:1008600097FD08C02FEF3FEF358724870F90DF916A
:10087000CF910895CE0101960E94B403019719F417
:10088000898190E0F3CF8FEF9FEFF0CF0F931F930D
:10089000CF93DF931F92CDB7DEB78C01FC01848527
:1008A000958597FF0BC0CE0101960E94B403019776
:1008B00071F4898190E0F80195878487F801848537
:1008C00095850F90DF91CF911F910F9108958FEF34
:1008D0009FEFF1CFFC018485958597FD0BC09FB7F5
:1008E000F89482E08093E9008091F2009FBF90E04D
:1008F000019608959FB7F89482E08093E900809173
:10090000F2009FBF90E008954091870150918801C7
:10091000209185013091860142175307B4F49091DC
:10092000E8009570E1F39091E80092FD19C0809382
:10093000F100809187019091880101968F7399272A
:10094000892B19F48EEF8093E800809187019091B4
:1009500088010196909388018093870181E0089532
:1009600080E00895EF92FF920F931F93CF93DF9350
:10097000F82E192FE62E042F81E0860F880F0E9493
:10098000840483E00E948404CF2DD12FEC0EFD2E31
:10099000F11CCE15DF05B9F007FF13C0FE018491ED
:1009A0000E948404182F80E00E94840481232196F1
:1009B0008111EFCFDF91CF911F910F91FF90EF90B9
:1009C00008958881EDCF81E0F5CFDF92EF92FF921D
:1009D0000F931F93CF93DF93D82E8A01EB017B01F6
:1009E000E40EF51ECE15DF0559F0D7FE12C0FE014C
:1009F00084910E94840421968111F4CF0FEF1FEFA0
:100A0000C801DF91CF911F910F91FF90EF90DF9080
:100A100008958881EECF0F931F93CF93DF931F929A
:100A2000CDB7DEB782E0898342E450E066E276E04B
:100A300080E80E94E5040E94EF03DC0112960D910C
:100A40001C910115110589F0D801ED91FC910280EE
:100A5000F381E02DBE016F5F7F4FC801099597FDBF
:100A600004C0F80100851185ECCF89810F90DF91DA
:100A7000CF911F910F910895615030F02091F100B6
:100A8000FC0120830196F8CF289884E68093990191
:100A9000089581508F3008F047C0E82FF0E0ED5AFC
:100AA000FA4F0C941C1670057405620568056C05F8
:100AB00094059405940577057D05810585058B05CD
:100AC00094058F05809180008F7780938000089532
:100AD000809180008F7DF9CF80918000877FF5CF56
:100AE00084B58F7784BD089584B58F7DFBCF8091C9
:100AF00090008F77809390000895809190008F7D73
:100B0000F9CF80919000877FF5CF8091C0008F77DB
:100B10008093C00008958091C0008F7DF9CF8091AF
:100B2000C200877F8093C20008951F93CF93DF9305
:100B3000282F30E0F901EE50F94F8491F901ED5280
:100B4000F94FD491F901EC54F94FC491CC23A9F099
:100B5000162F81110E944905EC2FF0E0EE0FFF1FC8
:100B6000E85EF94FA591B4918FB7F894EC9111110B
:100B700008C0D095DE23DC938FBFDF91CF911F910A
:100B80000895DE2BF8CFCF93DF9390E0FC01ED5278
:100B9000F94F24918C54994FFC0184918823D1F012
:100BA00090E0880F991FFC01E65FF94FA591B49181
:100BB000FC01E85EF94FC591D491623071F49FB7A2
:100BC000F8943C91822F809583238C93E8812E2B7F
:100BD00028839FBFDF91CF9108958FB7F894EC9150
:100BE0002E2B2C938FBFF6CF1F93CF93DF93182F0D
:100BF000682F617082E10E949505C12FD0E0BE018F
:100C000075956795617083E10E949505BE017595A4
:100C1000679575956795617084E10E94950533E04D
:100C2000D595C7953A95E1F76C2F617085E10E94E3
:100C300095051A3059F562E086E10E94C305E8E0A7
:100C4000F7E08491E9EEF6E0D491EAECF6E0C491A5
:100C5000C1110BC0D0E0C0E060E086E10E949505C4
:100C6000CE01DF91CF911F91089581110E94490516
:100C7000EC2FF0E0EE0FFF1FEA55F94FA591B4916C
:100C8000EC91ED2339F3CFEFD3E0E6CFEEE9F6E0D8
:100C9000E49190917B008E2F880F880F80729F7D4A
:100CA000892B80937B00E770E064E0937C00809167
:100CB0007A00806480937A0080917A0086FDFCCF70
:100CC000C0917800D0917900CBCF81500E94F4057B
:100CD00021E08130924008F420E0822F08951F9394
:100CE000CF93DF93182FEB0161E00E94C30520979B
:100CF00039F460E0812FDF91CF911F910C9495051D
:100D0000CF3FD10511F461E0F5CFE12FF0E0EE50D7
:100D1000F94FE491E150EF3008F07FC0F0E0ED567C
:100D2000F94F0C941C16A206AA06AF06B906C30614
:100D30000D070D070D07CD06D706E106EB06F806F1
:100D40000D07000784B5806884BDC7BDDF91CF91D2
:100D50001F91089584B5806284BDC8BDF7CF80918E
:100D60008000806880938000D0938900C0938800C1
:100D7000EDCF80918000806280938000D0938B00C3
:100D8000C0938A00E3CF80918000886080938000C8
:100D9000D0938D00C0938C00D9CF80919000806853
:100DA00080939000D0939900C0939800CFCF80910A
:100DB0009000806280939000D0939B00C0939A0033
:100DC000C5CF80919000886080939000D0939D0063
:100DD000C0939C00BBCF8091C00080688093C0000E
:100DE0008091C0008F7B8093C000C093CF00AECFB6
:100DF0008091C00080628093C000C093D000A6CFD5
:100E00008091C20088608093C2008091C2008B7F75
:100E10008093C200C093D20099CFC038D1050CF0A6
:100E200072CF67CF3FB7F894809181019091820192
:100E3000A0918301B091840126B5A89B05C02F3FE6
:100E400019F00196A11DB11D3FBFBA2FA92F982FF0
:100E50008827BC01CD01620F711D811D911D42E0EB
:100E6000660F771F881F991F4A95D1F708958F92B3
:100E70009F92AF92BF92CF92DF92EF92FF926B015F
:100E80007C010E9412074B015C01C114D104E104F2
:100E9000F104B9F00E941207681979098A099B09BF
:100EA000683E73408105910580F321E0C21AD108A4
:100EB000E108F10888EE880E83E0981EA11CB11CA1
:100EC000E4CFFF90EF90DF90CF90BF90AF909F90D6
:100ED0008F9008958F929F92AF92BF92CF92DF92A0
:100EE000EF92FF920F931F93CF93DF936C017B01DF
:100EF0008A0180910C01882309F45CC080919A01D9
:100F0000882309F457C080918C0180FF05C080912F
:100F1000E00082608093E000E801B12C8AEFA82E07
:100F200093E0892E2AE3922E209711F4BB20D9F169
:100F30000E94DE0381110AC0AA94AA20D9F161E0BF
:100F400070E080E090E00E943707EECF8C171D061E
:100F500011F00CF08C2F9FB7F8948092E90020914B
:100F6000E80025FD02C09FBFDFCF282F30E0C21B65
:100F7000D30BF701815020F041914093F100FACF5B
:100F8000E20EF31EBB2021F09092E800B12CEBCFD3
:100F90008091E80085FDE7CF9092E800BB24B394F0
:100FA000209709F3F3CF5D9884E680938B011016A8
:100FB00011063CF081E090E0F6019383828310E01B
:100FC00000E0C801DF91CF911F910F91FF90EF904A
:100FD000DF90CF90BF90AF909F908F90089538E0B2
:100FE000439FC0011124807E977030E043E0359527
:100FF00027954A95E1F7822B932B70E0762F662791
:101000006627787F862B972B0895AF92BF92CF9259
:10101000DF92EF92FF920F931F93CF93DF936C01B8
:101020007B018B01040F151FEB015E01AE18BF0899
:10103000C017D10759F06991D601ED91FC9101904B
:10104000F081E02DC6010995892B79F7C501DF9163
:10105000CF911F910F91FF90EF90DF90CF90BF90B5
:10106000AF900895EF92FF920F931F93DC011A96B1
:101070000D911C911B9718962D913C911997ED910C
:10108000FC910288F389E02D7B0150E040E070E0A4
:1010900060E009951F910F91FF90EF900895FC017A
:1010A000868D28E030E090E8882339F06EBD00009E
:1010B0000DB407FEFDCF8EB50895A1A1B2A186A5FE
:1010C000462F4923A9F04C91842B8C93A3A1B4A162
:1010D0008C9147A5842B8C93A3A1B4A14C9187A597
:1010E000809584238C9396952150310931F708958A
:1010F0004C9180958423E9CF08958CBD9DBD0895C2
:101100001F93CF93DF93EC01162F8E8D882321F050
:101110008F8D98A10E947D08EFA1F8A5808199A9E3
:10112000892B8083EDA1FEA1908188A980958923D8
:101130008083612FCE010E944F08EDA1FEA1808126
:1011400098A9892B8083DF91CF911F9108951F93D8
:10115000CF93DF93EC01162F8E8D882321F08F8D96
:1011600098A10E947D08EFA1F8A5908189A980959A
:1011700089238083EDA1FEA1908188A98095892390
:101180008083612FCE010E944F08EDA1FEA18081D6
:1011900098A9892B8083DF91CF911F9108956111C8
:1011A00003C060E20C94A70861E2FCCFEF92FF92CB
:1011B0000F931F93CF93DF93EC01E62E142FF22EA3
:1011C0006AE20E94A70860E0CE010E9480086AA936
:1011D0006E0DCE010E94800860E0CE010E94800862
:1011E0006AA96F0DCE010E9480086BE2CE010E94B9
:1011F000A70860E0CE010E9480086BA9610FCE01B4
:101200000E94800860E0CE010E9480086BA9600FF8
:10121000CE010E9480086CE2CE01DF91CF911F9138
:101220000F91FF90EF900C94A708AF92BF92CF92CE
:10123000DF92EF92FF920F931F93CF93DF93EC0116
:101240005901680128853985621773070CF066C05B
:101250008A859B85481759070CF060C0FB01EA0D91
:10126000FB1D2E173F071CF45901A61AB70A9A0155
:101270002C0D3D1D821793071CF46C01C41AD50A6E
:101280008D8D823091F4C701982F8827990F990F7F
:10129000990F9701207E3770822B932BEF2CFF2420
:1012A000E694E694E694E82AF92A0FEF040F0C0D71
:1012B0002FEF260F2A0DCE010E94D6088E8D88238F
:1012C00021F08F8D98A10E947D08EFA1F8A5808163
:1012D00099A9892B8083EDA1FEA1908188A9809591
:1012E000892380831C141D049CF4850110161106AB
:1012F0005CF46F2DCE010E944F086E2DCE010E942E
:101300004F0801501109F2CF81E0C81AD108EACF85
:10131000EDA1FEA1808198A9892B8083DF91CF91D7
:101320001F910F91FF90EF90DF90CF90BF90AF9003
:101330000895CF92DF92EF92FF920F931F93CF9376
:10134000DF93EC0169017801888599856817790731
:101350000CF052C02A853B85421753070CF04CC055
:101360009B012C0D3D1D821793071CF46C01C61ABE
:10137000D70A2FEF260F2C0D042FCE010E94D6087E
:101380008D8D823091F4C701982F8827990F990F7E
:10139000990F9701207E3770822B932BEF2CFF241F
:1013A000E694E694E694E82AF92A8E8D882321F0C3
:1013B0008F8D98A10E947D08EFA1F8A5808199A941
:1013C000892B8083EDA1FEA1908188A98095892336
:1013D000808381E0C81AD10848F06F2DCE010E94A9
:1013E0004F086E2DCE010E944F08F3CFEDA1FEA154
:1013F000808198A9892B8083DF91CF911F910F91D4
:10140000FF90EF90DF90CF900895CF92DF92EF9210
:10141000FF920F931F93CF93DF93EC016901780143
:1014200088859985681779070CF053C08A859B8554
:10143000481759070CF04DC09A012C0D3D1D82171D
:1014400093071CF46C01C41AD50A0FEF040F0C0D9E
:10145000262FCE010E94D6088D8D823091F4C701CF
:10146000982F8827990F990F990F9701207E377031
:10147000822B932BEF2CFF24E694E694E694E82A43
:10148000F92A0F2D8E8D882321F08F8D98A10E942F
:101490007D08EFA1F8A5808199A9892B8083EDA112
:1014A000FEA1908188A980958923808381E0C81A54
:1014B000D10848F0602FCE010E944F086E2DCE015A
:1014C0000E944F08F3CFEDA1FEA1808198A9892B3E
:1014D0008083DF91CF911F910F91FF90EF90DF906C
:1014E000CF900895EF92FF920F93CF93DF93EC018B
:1014F000790177FD4BC088859985681779070CF0CD
:1015000045C057FD43C08A859B8548175907F4F5A8
:1015100001E0040F21E0260FCE010E94D6088E8D37
:10152000882321F08F8D98A10E947D08EFA1F8A556
:10153000808199A9892B8083EDA1FEA1908188A942
:101540008095892380838D8D823091F4C701982FF7
:101550008827990F990F990F9701207E3770822B5A
:10156000932BEF2CFF24E694E694E694E82AF92ADC
:101570006F2DCE010E944F086E2DCE010E944F08A4
:10158000EDA1FEA1808198A9892B8083DF91CF9165
:101590000F91FF90EF90089508952F923F924F92F0
:1015A0005F926F927F928F929F92AF92BF92CF92F3
:1015B000DF92EF92FF920F931F93CF93DF93CDB7FC
:1015C000DEB72C970FB6F894DEBF0FBECDBF9C835D
:1015D0008B836A3061F5DC0154968C91B8E08B9F67
:1015E00090011124EB81FC8186859785820F931FE2
:1015F000978786871586148681E090E02C960FB633
:10160000F894DEBF0FBECDBFDF91CF911F910F9138
:10161000FF90EF90DF90CF90BF90AF909F908F9012
:101620007F906F905F904F903F902F9008956D3016
:1016300019F32B813C813C872B87D9011C96CD90D7
:10164000DC901D9718968D919C911997C816D90614
:101650000CF07FC01E968D909C901F971A968D91CE
:101660009C911B97881699060CF073C05496BC91F8
:10167000B983AB2EB12CC601E6E0BE9F800D911D53
:101680001124181619060CF064C0C50143E0880F38
:10169000991F4A95E1F7880D991D181619060CF047
:1016A00058C0D90152960D90BC91A02DBC83AB833C
:1016B000F9010088F189E02DFE83ED83F5E06F9F4D
:1016C000B001112426011A826C197D099B01245551
:1016D0003F4F3A8729873A81E0E0353029F0E985A4
:1016E000FA85E40DF51DE4911401712C612C8E2F07
:1016F00090E098878F83E0FF6AC0AB85BC85ED9151
:10170000FC91B981B13009F055C00084F185E02D1C
:101710002D813E81A401460D571DB2018B859C850C
:101720000995EF81F885F595E795FFEF6F1A7F0A28
:101730002A0C3B1C28E062167104C9F63FEF431ADD
:10174000530ACA0CDB1C5A815F5F5A83563009F07A
:10175000C2CFAB85BC8554964C915497242F30E072
:101760001C968D919C91B6E04B9F800D911D11248C
:10177000EB85FC85958784874689442309F43CCF13
:101780006AEF6203A001639F500D1124608571858B
:10179000460F571F481759070CF02ECF83E0220F32
:1017A000331F8A95E1F786859785280F391F37877C
:1017B000268720CF0288F389E02DED80FE80850109
:1017C0009501A101B6018B859C850995AACFEB8176
:1017D000FC812D813E81E217F30709F4A2CFAB858E
:1017E000BC85ED91FC91B981B13031F40084F18573
:1017F000E02D2B813C818ECF0288F389E02DEB8098
:10180000FC80DDCFEF92FF920F931F93DC011A96BD
:101810000D911C911B9718962D913C911997ED9164
:10182000FC910288F389E02D7B0150E040E070E0FC
:1018300060E009951F910F91FF90EF9008956F92CE
:101840007F928F929F92AF92BF92CF92DF92EF9250
:10185000FF920F931F93CF93DF936C015A014801BE
:10186000EB013B01620E731EC615D70574F4D60159
:10187000ED91FC910484F585E02D87019401A5018B
:10188000BE01C60109952196EFCFDF91CF911F913F
:101890000F91FF90EF90DF90CF90BF90AF909F900F
:1018A0008F907F906F900895EF92FF920F931F9308
:1018B000260F371F21503109DC01ED91FC91028484
:1018C000F385E02D78018A0109951F910F91FF9012
:1018D000EF900895EF92FF920F931F93240F351FFF
:1018E00021503109DC01ED91FC910284F385E02D5A
:1018F000780189019B0109951F910F91FF90EF904D
:1019000008956F927F928F929F92AF92BF92CF92E3
:10191000DF92EF92FF920F931F93CF93DF93EC012F
:101920006B015A0139014801E881F9810684F78584
:10193000E02D87010995A501480D591D4150510918
:10194000E881F9810684F785E02D9301B601CE0187
:101950000995E881F9810484F585E02D9401A501BC
:10196000B601CE010995C60CD71CB60161507109AC
:10197000E881F9810484F585E02D9401A501CE016B
:101980000995DF91CF911F910F91FF90EF90DF901C
:10199000CF90BF90AF909F908F907F906F90089561
:1019A0002F923F924F925F926F927F928F929F926F
:1019B000AF92BF92CF92DF92EF92FF920F931F935D
:1019C000CF93DF9300D000D000D0CDB7DEB73C017D
:1019D0006A013E832D83FC82EB825801A41AB50A6A
:1019E000B7FE03C0B194A194B1088D809E80861A81
:1019F000970A97FE03C09194819491088A149B04DE
:101A00005CF0902F812F0D811E819D838E839C2DF4
:101A10008D2D6B01692F782F0C151D055CF09D81B4
:101A20008E817E836D83692F782F902F812F860181
:101A3000C92ED82E1601201A310A2B012D813E8184
:101A4000421A530A57FE03C0519441945108710140
:101A500037FE03C03FEFE31AF30AF594E7948D8154
:101A60009E81861797075CF5A1E0B0E0BA83A98351
:101A7000C016D1064CF1D301ED91FC910084F185A3
:101A8000E02D2B813C81A8016D817E818A149B040D
:101A90001CF04D815E81B801C3010995E418F50879
:101AA000F7FE0AC02D813E8189819A81280F391F56
:101AB0003E832D83E20CF31C0F5F1F4FD9CF2FEF16
:101AC0003FEF3A832983D4CF26960FB6F894DEBF32
:101AD0000FBECDBFDF91CF911F910F91FF90EF907F
:101AE000DF90CF90BF90AF909F908F907F906F903E
:101AF0005F904F903F902F900895089590E080E080
:101B00000895FC0101900020E9F73197AF01481BCF
:101B1000590BBC018BEE91E00C9405080E9404184F
:101B20001F920F920FB60F9211248F939F93809163
:101B3000E1009091E100937F9093E10083FF0FC05B
:101B40001092E90091E09093EB001092EC0092E388
:101B50009093ED0010929A0198E09093F00082FF2C
:101B600022C093E09093E9009091F200992319F03C
:101B70009AE39093E80090918B01992341F0909122
:101B80008B01915090938B01911101C05D9A9091BE
:101B90009901992341F09091990191509093990165
:101BA000911101C0289A84FF18C08091E2008E7EB6
:101BB00081608093E2008091E1008F7E8093E1005C
:101BC00080918C018E7E806180938C019F918F919A
:101BD0000F900FBE0F901F90189580FFF7CF809148
:101BE000E2008E7E80618093E2008091E1008E7E33
:101BF0008093E10080918C018E7E8160E5CF1F9201
:101C00000F920FB60F921124CF92DF92EF92FF92B4
:101C10000F931F932F933F934F935F936F937F93F4
:101C20008F939F93AF93BF93EF93FF93CF93DF93E4
:101C3000CDB7DEB76C97DEBFCDBF1092E9008091C3
:101C4000E80083FF25C068E0CE0145960E943C0570
:101C500082EF8093E8008D8987FF39C09091E8007A
:101C600090FFFCCF982F907609F034C19E894F8960
:101C7000588D2F89F88C911131C0803861F5809191
:101C80008A018093F1001092F1008EEF8093E800BA
:101C90006C960FB6F894DEBF0FBECDBFDF91CF912B
:101CA000FF91EF91BF91AF919F918F917F916F9134
:101CB0005F914F913F912F911F910F91FF90EF9066
:101CC000DF90CF900F900FBE0F901F9018959EEF52
:101CD0009093E800C7CF1092F100D5CF913059F41E
:101CE0008111D3CF4130510581F680918A018D7FDA
:101CF00080938A01CACF933049F48111C6CF413015
:101D0000510519F680918A018260F2CF953041F435
:101D10008091E80080FFFCCF20682093E300B5CFDE
:101D2000963009F0A9C00B8D1C8D22E01092E900BD
:101D30001092880110928701F2122EC01092860133
:101D4000109285010E940B051F8299E09983FA8207
:101D500091E09E8390EA98879AEF99872091870176
:101D600030918801275F3F4F3C832B838D831092F6
:101D7000E900109288011092870110938601009368
:101D8000850149E050E0BE016F5F7F4F80E00E9417
:101D9000E5040E940B0579CF10938601009385011D
:101DA0000E94EF03DC0112960D911C9101151105A3
:101DB00009F451C1D801ED91FC910480F581E02D29
:101DC000BE016B5E7F4FC8010995009709F03EC1C7
:101DD000F80100851185EACFF3E0FF120EC08F896C
:101DE000882309F440C0823061F440E86FE08AE85B
:101DF00096E00E94B204811148CF81E28093EB000B
:101E000047CF813029F440E86BE08EE796E0F1CFD0
:101E1000833099F70E94EF03DC011296ED90FC905D
:101E20008E010F5F1F4F6801E114F10479F0D701B3
:101E3000ED91FC910680F781E02DB801C70109956D
:101E4000080F111DF701E084F184EECFD8011C9238
:101E5000F60101900020E9F73197BF016C197D0967
:101E600040E0C601C6CF68E676E0FB01449150E051
:101E700080E80E94E50409CF973009F4BECF98307E
:101E800021F481E08093F10000CF993009F0FDCE7C
:101E9000837009F0B2CFE4E1F1E081E031E096E354
:101EA0002191222371F08093E9003093EB00DF0150
:101EB00011972C912093EC009093ED008F5F873069
:101EC00079F78EE78093EA001092EA008F89809379
:101ED0009A01DBCE8B8D9C8D1092E90010928801C7
:101EE000109287019093860180938501898D8111DD
:101EF00092C08E899D89913A49F4813209F07DCF53
:101F000047E050E065E071E080E0B3CF913209F046
:101F100074CF833269F48F89988DB0E0A0E080930C
:101F2000010190930201A0930301B0930401ADCE8F
:101F3000803269F48091E80082FFFCCF67E085E0A1
:101F400091E00E943C058BEF8093E8009ECE8232A8
:101F500009F09BCE8F8980930C01EEEFFFE785910E
:101F600094918B3F9C4D51F1E0E0F8E080910501A8
:101F700090910601A0910701B0910801803B944027
:101F8000A105B105F1F480910C0180FD1AC0EE3F6E
:101F90008AE0F80789F587E797E791838083809146
:101FA00060008093890188E19BE00FB6F894A895C2
:101FB000809360000FBE9093600067CEEEEFFAE072
:101FC000D5CF808191818737974709F05ECEA8955C
:101FD0008091600088618093600080918901809386
:101FE0006000EE3F2AE0F20789F08091FE0A9091AE
:101FF000FF0A9183808349CE80819181873798073A
:1020000051F29093FF0A8093FE0AC5CF1092FF0A07
:102010001092FE0A3ACE0E94EF03DC0112960D9157
:102020001C910115110509F4E8CED801ED91FC9140
:102030000190F081E02DBE016B5E7F4FC8010995D4
:10204000811123CEF80100851185EBCF18161906F2
:102050000CF41BCED2CEF1E0FF12BECE6CE676E0E1
:1020600004CF1F920F920FB60F9211242F933F931C
:102070008F939F93AF93BF9380917D0190917E0149
:10208000A0917F01B091800130917C0123E0230F6A
:102090002D3758F50196A11DB11D20937C01809329
:1020A0007D0190937E01A0937F01B0938001809188
:1020B000810190918201A0918301B09184010196E8
:1020C000A11DB11D8093810190938201A093830192
:1020D000B0938401BF91AF919F918F913F912F91C8
:1020E0000F900FBE0F901F90189526E8230F0296B1
:1020F000A11DB11DD2CF1F920F920FB60F921124C6
:102100008F939F93AF93BF93EF93FF9380916C0155
:1021100090916D01A0916E01B0916F01892B8A2B76
:102120008B2BA1F190916301E0916401F091650125
:1021300080818927808380916C0190916D01A091AD
:102140006E01B0916F01181619061A061B069CF451
:1021500080916C0190916D01A0916E01B0916F0121
:102160000197A109B10980936C0190936D01A0932F
:102170006E01B0936F01FF91EF91BF91AF919F916D
:102180008F910F900FBE0F901F9018958091710046
:102190008D7F8093710080916301E0916401F091E3
:1021A00065019081809589238083E5CFEBE9F1E09B
:1021B0001382128288EE93E0A0E0B0E084839583DE
:1021C000A683B7838EE191E0918380832FEF3FEF69
:1021D00035872487EBEEF1E01382128240E850E06D
:1021E0005583448360EA70E077836683158A158699
:1021F00014861786168681E0848B338B228B318B75
:10220000208B868B90E5978F10A297E091A712A65E
:1022100083A7868F15A614A680E391E0918380831F
:10222000718760875387428761E082E10E94C3051E
:1022300061E083E10E94C30561E084E10E94C3057F
:1022400061E085E10E94C30561E085E00E94C3056D
:1022500061E08AE00E94C30561E089E00C94C30557
:10226000CF93DF93CDB7DEB762970FB6F894DEBF9A
:102270000FBECDBF789484B5826084BD84B5816083
:1022800084BD85B5826085BD85B5816085BD809141
:102290006E00816080936E001092810080918100B9
:1022A00082608093810080918100816080938100B1
:1022B0008091800081608093800080919100826095
:1022C0008093910080919100816080939100809132
:1022D00090008160809390008091C1008460809321
:1022E000C1008091C10082608093C1008091C100D3
:1022F00081608093C1008091C30081608093C3009E
:102300008091C00082608093C0008091C200816093
:102310008093C20080917A00846080937A008091DB
:102320007A00826080937A0080917A008160809345
:102330007A0080917A00806880937A0010929A01E6
:1023400010928A0110928C018091D7008160809355
:10235000D70080EA8093D80089B5806189BD89B5AE
:10236000826089BD09B400FEFDCF61E070E080E0CD
:1023700090E00E9437078091D8008F7C8061809325
:10238000D8008091E000807F8093E0008091E100A0
:102390008E7E8093E1008DE08093E200559A209A32
:1023A00010921E0210921D0261E0809115020E949F
:1023B000C30561E0809114020E94C305809114025C
:1023C00090E0FC01EC54F94FE491F0E0EE0FFF1FB8
:1023D000E85EF94F25913491309311022093100259
:1023E000FC01ED52F94FE491E0931B02809115023C
:1023F00090E0FC01EC54F94FE491F0E0EE0FFF1F88
:10240000E85EF94F25913491309313022093120224
:10241000FC01ED52F94FE491E0931C028091090216
:10242000882309F492C01FB7F8948091610181114B
:1024300027C0E5ECF6E08491E4EEF6E09491E82F15
:10244000F0E0EE0FFF1FE65FF94FA591B491EC911C
:10245000E92321F461E081E10E94950561E081E1D9
:102460000E94C3058CB580618CBD8CB580648CBD29
:1024700061E08FE00E94C30561E080E10E94C30536
:10248000809161018F5F809361011FBF80E5809320
:102490000A0210920B02E0911002F0911102908159
:1024A00080911B0280958923808380911602882366
:1024B00021F161E00E94C30561E0809116020E9453
:1024C000950564EF71E080E090E00E94370760E0DE
:1024D000809116020E94950564EF71E080E090E023
:1024E0000E94370761E0809116020E94950564EF13
:1024F00071E080E090E00E943707E7EAF5E0D490D1
:1025000008EA15E0DA94FFEFDF1609F47EC0F8015F
:1025100064918BEE91E00E94A7085801F2E0AF0EA3
:10252000B11CF8013196C4900C2D0F777501102F56
:10253000115008F453C0F70164918BEE91E00E94B2
:102540008008FFEFEF1AFF0AF3CF61E080911802D5
:102550000E94C30561E0809117020E94C30580912B
:10256000180290E0FC01EC54F94FE491F0E0EE0F1A
:10257000FF1FE85EF94FA591B491B0930F02A093AD
:102580000E028D52994FFC01849180931A02209182
:10259000170230E0F901EC54F94FE491F0E0EE0F4E
:1025A000FF1FE85EF94F4591549150930D024093FF
:1025B0000C02F901ED52F94FE491E0931902EC910C
:1025C00080958E238C93E0910C02F0910D02908106
:1025D000809119028095892380835DCF0A0D1B2D80
:1025E000111DC7FE8FCF78018FEFE81AF80AF801A6
:1025F000649170E06F3F710511F464EF71E090E059
:1026000080E00E94370787017DCF66E38BEE91E083
:102610000E94A70811E01093000268EA8BEE91E097
:102620000E94800880EA90E09093F4018093F30187
:1026300080E890E09093F6018093F50170E060E00F
:102640008BEE91E00E9432081093040286EB98EC26
:1026500090930302809302029093FC018093FB010C
:102660009093FE018093FD0182E08093FF01109220
:1026700001021092F8011092F7011092FA011092E3
:10268000F9018AE491E00E94810D85E08093FF01C9
:10269000E9EDAE2EE6E0BE2ECE0101966C01882457
:1026A0008A94982C44244A94542C32017EE1272E9B
:1026B000312C82E00E946506909100018111DBC1FE
:1026C000963009F0D3C0E9E0F6E0149117FD0AC096
:1026D00061E086E00E94C305112309F45AC112305B
:1026E00009F06BC181E00E946506811106C08091EE
:1026F0007B0191E0892780937B0180911F0290915B
:102700007B01992309F4E0C1882369F070E060E05F
:1027100085E00E946F0610921F0265E070E080E085
:1027200090E00E94370780912002882369F070E0D2
:1027300060E08AE00E946F061092200265E070E07F
:1027400080E090E00E943707809121028F3F71F076
:102750006FEF70E089E00E946F068FEF8093210297
:1027600065E070E080E090E00E94370786E00E941C
:10277000F4059C01A4EFB1E00E940D16DC01CB0131
:102780002AE0B595A795979587952A95D1F7C29791
:102790004AE0B6010E94A115F60101900020E9F778
:1027A00031978F010C191D09B8016F5F7F4F90E0C1
:1027B00080E00E9447177C01009749F0FC011082DD
:1027C000B6010E9412180115110509F0AAC1109254
:1027D000780111E0109304029092030280920202A9
:1027E0009092FC018092FB019092FE018092FD018B
:1027F000109201021092F8011092F7013092FA0142
:102800002092F90188E791E00E94810D68EE73E063
:1028100080E090E00E9437071093040210920302B8
:10282000109202021092FC011092FB011092FE0124
:102830001092FD01109201021092F8011092F7011E
:102840003092FA012092F90188E791E00E94810D0F
:10285000E114F10419F0C7010E94BE1680E090E077
:10286000892B09F426CF0E94000020CF9F3F09F05A
:1028700039CF86E080930001E9E0F6E014911F3F34
:1028800009F430CF113039F168F0133009F441C048
:10289000143009F460C017FD25CF61E086E00E9486
:1028A000C3051DCF14BC15BC84B5826084BD85B53D
:1028B000816085BDEAEBF6E08491E82FF0E0EE0F51
:1028C000FF1FE85EF94F85919491F5018491809303
:1028D000670110E0FDCE109280001092810080917F
:1028E0008100886080938100809181008160809365
:1028F0008100EAEBF6E08491E82FF0E0EE0FFF1F95
:10290000E85EF94F85919491F50184918093660179
:10291000DFCE10929000109291008091910088601B
:102920008093910080919100816080939100EAEB07
:10293000F6E08491E82FF0E0EE0FFF1FE85EF94F1C
:10294000859194919093650180936401F501849140
:1029500080936301BDCE1092C0001092C10080919F
:10296000C10088608093C1008091C1008160809324
:10297000C100EAEBF6E08491E82FF0E0EE0FFF1FD4
:10298000E85EF94F85919491F501849180936201FD
:102990009FCE85B5887F846085BD86E487BD4092E3
:1029A0007401509275016092760170927701809166
:1029B0006E00826080936E0095CE1130D1F48091CC
:1029C0008100887F81608093810084E097E4909308
:1029D000890080938800409270015092710160924A
:1029E00072017092730180916F00826080936F001A
:1029F00079CE1330D1F480919100887F81608093EB
:102A00009100E4E0F7E4F0939900E093980040929D
:102A10006C0150926D0160926E0170926F01809115
:102A200071008260809371005DCE1430B9F48091A2
:102A3000C100887F81608093C100F4E0F093CF00F3
:102A4000409268015092690160926A0170926B0134
:102A50008091720080648093720044CE113009F43A
:102A6000B4CF24F411113ECE84E098CF133049F254
:102A7000143019F337CE963069F4E9E0F6E084912A
:102A8000FFEFF0930001813069F048F0833081F06E
:102A90008430A1F060E086E00E94950523CE10927C
:102AA0006E00F8CF80916F008D7F80936F00F2CF22
:102AB000809171008D7F80937100ECCF80917200C6
:102AC0008F7B80937200E6CF882369F070E060E02E
:102AD00085E00E946F0610921F0265E070E080E0C2
:102AE00090E00E94370780912002882369F070E00F
:102AF00060E08AE00E946F061092200265E070E0BC
:102B000080E090E00E94370780912102882309F439
:102B10002DCE70E060E089E00E946F0610922102E5
:102B20001FCE0130110511F002E010E0A801B7013D
:102B300088E791E00E941918F801E858FE4F1082CA
:102B400048CEBB274A3031F4992322F4BDE2909558
:102B500081959F4F0C94AD15BB27FB015527AA27E4
:102B6000880F991FAA1FA41710F0A41B839550511A
:102B7000B9F7A05DAA3308F0A95DA193009779F792
:102B8000B111B1931192CB010C94C615DC01FC017B
:102B9000672F71917723E1F7329704C07C916D9391
:102BA00070836291AE17BF07C8F308952F923F92CA
:102BB0004F925F926F927F928F929F92AF92BF924D
:102BC000CF92DF92EF92FF920F931F93CF93DF93F9
:102BD000CDB7DEB7CA1BDB0B0FB6F894DEBF0FBE56
:102BE000CDBF09942A88398848885F846E847D84A3
:102BF0008C849B84AA84B984C884DF80EE80FD80A5
:102C00000C811B81AA81B981CE0FD11D0FB6F8941A
:102C1000DEBF0FBECDBFED010895A29FB001B39FEF
:102C2000C001A39F700D811D1124911DB29F700DD5
:102C3000811D1124911D0895EE0FFF1F0590F49141
:102C4000E02D09940F931F93CF93DF93823091056A
:102C500010F482E090E0E0912402F091250230E04F
:102C600020E0B0E0A0E0309799F42115310509F497
:102C70004AC0281B390B24303105D8F58A819B8145
:102C80006115710589F1FB0193838283FE0111C0F7
:102C9000408151810281138148175907E0F048179C
:102CA000590799F4109761F012960C9312971396A6
:102CB0001C933296CF01DF91CF911F910F91089510
:102CC0000093240210932502F4CF2115310551F011
:102CD0004217530738F0A901DB019A01BD01DF015A
:102CE000F801C1CFEF01F9CF909325028093240220
:102CF000CDCFFE01E20FF31F819391932250310952
:102D000039832883D7CF2091220230912302232BAD
:102D100041F420910F013091100130932302209350
:102D2000220220910D0130910E012115310541F44F
:102D30002DB73EB74091110150911201241B350B64
:102D4000E0912202F0912302E217F307A0F42E1B78
:102D50003F0B2817390778F0AC014E5F5F4F2417FF
:102D6000350748F04E0F5F1F509323024093220215
:102D7000819391939FCFF0E0E0E09CCFCF93DF93DE
:102D80000097E9F0FC01329713821282A09124028D
:102D9000B0912502ED0130E020E01097A1F42081F0
:102DA0003181820F931F2091220230912302281734
:102DB000390709F061C0F0932302E0932202DF910A
:102DC000CF910895EA01CE17DF07E8F54A815B81CC
:102DD0009E0141155105B1F7E901FB83EA83499151
:102DE0005991C40FD51FEC17FD0761F480819181C3
:102DF0000296840F951FE9019983888382819381CC
:102E00009B838A83F0E0E0E012968D919C9113976A
:102E10000097B9F52D913C911197CD010296820F43
:102E2000931F20912202309123022817390739F687
:102E3000309751F51092250210922402B09323028C
:102E4000A0932202BCCFD383C28340815181840FDF
:102E5000951FC817D90761F44E5F5F4F888199812C
:102E6000480F591F518340838A819B8193838283BA
:102E70002115310509F0B0CFF0932502E09324022B
:102E80009ECFFD01DC01C0CF13821282D7CFB0E00C
:102E9000A0E0EDE4F7E10C94D8158C01009751F413
:102EA000CB010E9422168C01C801CDB7DEB7E0E14C
:102EB0000C94F415FC01E60FF71F9C012250310918
:102EC000E217F30708F49DC0D901CD91DC91119769
:102ED000C617D70798F0C530D10530F3CE01049757
:102EE0008617970708F3C61BD70B2297C193D19378
:102EF0006D937C93CF010E94BE16D6CF5B01AC1AB6
:102F0000BD0A4C018C0E9D1EA0912402B091250299
:102F1000512C412CF12CE12C109731F5809122029B
:102F2000909123028815990509F05CC04616570652
:102F300008F058C080910D0190910E01009741F466
:102F40008DB79EB74091110150911201841B950BD2
:102F5000E817F90708F055C0F0932302E093220226
:102F6000F90171836083A0CF8D919C911197129686
:102F70006C90129713967C901397A815B90559F584
:102F80006C0142E0C40ED11CCA14DB0420F1AC0178
:102F90004A195B09DA011296159780F062827382F2
:102FA00051834083D9016D937C93E114F10471F056
:102FB000D7011396FC93EE93129776CF22968C0F3F
:102FC0009D1FF90191838083F301EFCFF0932502D8
:102FD000E093240269CF4816590608F42C017D01BC
:102FE000D3019ACFCB010E9422167C01009749F0B1
:102FF000AE01B8010E940918C8010E94BE168701DF
:1030000053CF10E000E050CF81E090E0F8940C94B2
:103010002818FB01DC0102C001900D924150504084
:10302000D8F70895FB01DC0101900D920020E1F733
:103030000895FB01DC014150504048F001900D9291
:103040000020C9F701C01D9241505040E0F708959B
:04305000F894FFCF22
:10305400FFFFFFFFFF00E10000000000000000266A
:1030640002800000C1808100000000000000030411
:103074006A07240419046A042804460400000000B2
:10308400CD0A05087E0D7D0D720AD00C050A99093A
:10309400810C15093208CF08EF074465677265652E
:0C30A4007320696E2043203A0A200000CF
:00000001FF
