:100000000C9482030C94AA030C94AA030C94AA03E4
:100010000C94AA030C94AA030C94AA030C94AA03AC
:100020000C94AA030C94AA030C94610C0C94D00CAD
:100030000C94AA030C94AA030C94AA030C94AA038C
:100040000C94AA030C94AA030C94AA030C94AA037C
:100050000C94AA030C94AA030C94AA030C94020F08
:100060000C94AA030C94AA030C94AA030C94AA035C
:100070000C94AA030C94AA030C94AA030C94AA034C
:100080000C944C0F0C94AA030C94AA030C94AA038E
:100090000C94AA030C94AA030C94AA030C94AA032C
:1000A0000C94AA030C94AA030C94AA030000000069
:1000B000003E5B4F5B3E3E6B4F6B3E1C3E7C3E1CEE
:1000C000183C7E3C181C577D571C1C5E7F5E1C0034
:1000D000183C1800FFE7C3E7FF0018241800FFE7EB
:1000E000DBE7FF30483A060E2629792926407F05AE
:1000F0000507407F05253F5A3CE73C5A7F3E1C1CC4
:1001000008081C1C3E7F14227F22145F5F005F5F83
:1001100006097F017F006689956A6060606060946F
:10012000A2FFA29408047E040810207E2010080874
:100130002A1C08081C2A08081E101010100C1E0C7F
:100140001E0C30383E3830060E3E0E060000000011
:100150000000005F00000007000700147F147F14F8
:10016000242A7F2A1223130864623649562050003D
:1001700008070300001C2241000041221C002A1C29
:100180007F1C2A08083E0808008070300008080814
:100190000808000060600020100804023E51494534
:1001A0003E00427F400072494949462141494D3352
:1001B0001814127F1027454545393C4A49493141B9
:1001C000211109073649494936464949291E000087
:1001D00014000000403400000008142241141414DC
:1001E0001414004122140802015909063E415D59C8
:1001F0004E7C1211127C7F494949363E41414122D1
:100200007F4141413E7F494949417F090909013EFA
:10021000414151737F0808087F00417F4100204021
:10022000413F017F081422417F404040407F021C33
:10023000027F7F0408107F3E4141413E7F0909094A
:10024000063E4151215E7F09192946264949493216
:1002500003017F01033F4040403F1F2040201F3FDC
:100260004038403F63140814630304780403615961
:10027000494D43007F4141410204081020004141A3
:10028000417F04020102044040404040000307084F
:100290000020545478407F2844443838444444284B
:1002A000384444287F385454541800087E090218F2
:1002B000A4A49C787F0804047800447D400020407A
:1002C000403D007F1028440000417F40007C0478BE
:1002D00004787C080404783844444438FC18242406
:1002E0001818242418FC7C08040408485454542486
:1002F00004043F44243C4040207C1C2040201C3C03
:100300004030403C44281028444C9090907C4464F9
:10031000544C44000836410000007700000041368C
:10032000080002010204023C2623263C1EA1A16112
:10033000123A4040207A3854545559215555794144
:100340002154547841215554784020545579400C1B
:100350001E527212395555555939545454593955FC
:100360005454580000457C410002457D420001453F
:100370007C40F0292429F0F0282528F07C545545AC
:10038000002054547C547C0A097F4932494949323F
:100390003248484832324A4848303A4141217A3A54
:1003A00042402078009DA0A07D39444444393D401E
:1003B00040403D3C24FF2424487E4943662B2FFCCB
:1003C0002F2BFF0929F620C0887E09032054547979
:1003D000410000447D413048484A32384040227A4A
:1003E000007A0A0A727D0D19317D2629292F2826C7
:1003F0002929292630484D402038080808080808CF
:100400000808382F10C8ACBA2F102834FA00007B27
:10041000000008142A142222142A1408AA005500E5
:10042000AAAA55AA55AA000000FF00101010FF004C
:10043000141414FF001010FF00FF1010F010F0143F
:100440001414FC001414F700FF0000FF00FF141444
:10045000F404FC141417101F10101F101F14141490
:100460001F00101010F0000000001F101010101FCF
:1004700010101010F010000000FF101010101010DD
:10048000101010FF10000000FF140000FF00FF001C
:10049000001F10170000FC04F41414171017141494
:1004A000F404F40000FF00F714141414141414F7E7
:1004B00000F7141414171410101F101F141414F440
:1004C000141010F010F000001F101F0000001F1487
:1004D000000000FC140000F010F01010FF10FF14DA
:1004E0001414FF141010101F00000000F010FFFF84
:1004F000FFFFFFF0F0F0F0F0FFFFFF000000000052
:10050000FFFF0F0F0F0F0F38444438447C2A2A3E58
:10051000147E02020606027E027E02635549416392
:100520003844443C04407E201E2006027E0202998C
:10053000A5E7A5991C2A492A1C4C7201724C304A25
:100540004D4D303048784830BC625A463D3E4949AE
:1005500049007E0101017E2A2A2A2A2A44445F4456
:100560004440514A444040444A51400000FF010386
:10057000E080FF000008086B6B0836123624360650
:100580000F090F060000181800000010100030407E
:10059000FF0101001F01011E00191D1712003C3C44
:1005A0003C3C0000000000130180321180642601F1
:1005B00004B1020B14C0020800C10105C50241309C
:1005C000C701C1EC011B3A8155642A040000007F79
:1005D0002B040000009F3601C8B70100F20100E0C3
:1005E0008F282422312B0E53A5421618121A1403F9
:1005F00032E18F171B1D0E14112CA53D09272D2547
:100600002B3C3213800A2980FF07060504010008ED
:100610000A0B0C0D0900000000240027002A002D01
:1006200000300000000000250028002B002E0031C3
:100630000004040404040304050202020204030289
:10064000020202060606060606040402020204046A
:1006500004080201104080401020408040800802C1
:100660000401804020100201108010204040200032
:1006700000000200090F0000030401000C0000004C
:100680000000000000000000000000000000080B57
:10069000000202020000090400000102020000053D
:1006A000240010010524010101042402060524068A
:1006B00000010705810310004009040100020A003F
:1006C0000000070502024000000705830240000009
:1006D0000403090412010002EF02014041233C001F
:1006E00000010102030141726475696E6F204C4C78
:1006F000430041726475696E6F204573706C6F7250
:1007000061009F0F11241FBECFEFDAE0DEBFCDBF27
:1007100022E0AAE5B1E001C01D92AE31B207E1F7D7
:1007200011E0A0E0B1E0E6ECFAE202C005900D9223
:10073000AA35B107D9F713E0C2E8D3E004C0219786
:10074000FE010E945513C138D107C9F70E94F90F65
:100750000C9461150C940000FC0180919501882394
:1007600011F13FB7F89482E08093E9002091F20004
:10077000822F90E01816190614F481E090E0882387
:1007800039F0289844E6409394014091F100408369
:10079000222339F02091F200211103C02BE620938F
:1007A000E8003FBF08958FEF9FEF08952FB7F894AB
:1007B00083E08093E9009091E800892F807295FF93
:1007C00004C09091F20080E4891B2FBF08958091AE
:1007D0008C0181110DC082E08093880184E08093B8
:1007E000890110928B0110928A0181E080938C0123
:1007F00088E891E00895CF93DF931F92CDB7DEB7DD
:100800006983DC01ED91FC910280F381E02D41E0F0
:1008100050E0BE016F5F7F4F09950F90DF91CF9140
:10082000089583E08093E9008091F200882319F015
:100830008AE38093E80008950E94D60390E008952B
:10084000CF93DF931F92CDB7DEB7FC0184859585EA
:1008500097FD08C02FEF3FEF358724870F90DF917A
:10086000CF910895CE0101960E94AC03019719F42F
:10087000898190E0F3CF8FEF9FEFF0CF0F931F931D
:10088000CF93DF931F92CDB7DEB78C01FC01848537
:10089000958597FF0BC0CE0101960E94AC0301978E
:1008A00071F4898190E0F80195878487F801848547
:1008B00095850F90DF91CF911F910F9108958FEF44
:1008C0009FEFF1CFFC018485958597FD0BC09FB705
:1008D000F89482E08093E9008091F2009FBF90E05D
:1008E000019608959FB7F89482E08093E900809183
:1008F000F2009FBF90E008954091820150918301E2
:10090000209180013091810142175307B4F49091F6
:10091000E8009570E1F39091E80092FD19C0809392
:10092000F100809182019091830101968F73992744
:10093000892B19F48EEF8093E800809182019091C9
:1009400083010196909383018093820181E0089551
:1009500080E00895EF92FF920F931F93CF93DF9360
:10096000F82E192FE62E042F81E0860F880F0E94A3
:100970007C0483E00E947C04CF2DD12FEC0EFD2E51
:10098000F11CCE15DF05B9F007FF13C0FE018491FD
:100990000E947C04182F80E00E947C048123219611
:1009A0008111EFCFDF91CF911F910F91FF90EF90C9
:1009B00008958881EDCF81E0F5CFDF92EF92FF922D
:1009C0000F931F93CF93DF93D82E8A01EB017B0106
:1009D000E40EF51ECE15DF0559F0D7FE12C0FE015C
:1009E00084910E947C0421968111F4CF0FEF1FEFB8
:1009F000C801DF91CF911F910F91FF90EF90DF9091
:100A000008958881EECF0F931F93CF93DF931F92AA
:100A1000CDB7DEB782E0898342E450E06EE876E04D
:100A200080E80E94DD040E94E703DC0112960D912C
:100A30001C910115110589F0D801ED91FC910280FE
:100A4000F381E02DBE016F5F7F4FC801099597FDCF
:100A500004C0F80100851185ECCF89810F90DF91EA
:100A6000CF911F910F910895615030F02091F100C6
:100A7000FC0120830196F8CF289884E680939401A6
:100A80000895282F30E0F901E159F94F9491F901C7
:100A9000E05BF94F84912F5C394FF90124912223B7
:100AA00009F430C09923E9F091509F30D0F4E92F38
:100AB000F0E0E35AFA4F0C9455138B058F056C0543
:100AC00083058705710571057105920598059C05DB
:100AD000A005A6057105AA05909180009F779093C7
:100AE0008000E22FF0E0EE0FFF1FED5DF94FA591C2
:100AF000B4919FB7F894EC91611132C080958E2328
:100B00008C939FBF0895909180009F7DE8CF909136
:100B10008000977FE4CF94B59F7794BDE2CF94B5E2
:100B20009F7DFBCF909190009F7790939000D9CFBD
:100B3000909190009F7DF9CF90919000977FF5CF95
:100B40009091C0009F779093C000CBCF9091C00050
:100B50009F7DF9CF9091C200977F9093C200C1CF43
:100B60008E2BCECFCF93DF9390E0FC01E05BF94F6B
:100B700024918F5C994FFC0184918823D1F090E0FF
:100B8000880F991FFC01EB5EF94FA591B491FC0110
:100B9000ED5DF94FC591D491623071F49FB7F8942F
:100BA0003C91822F809583238C93E8812E2B288380
:100BB0009FBFDF91CF9108958FB7F894EC912E2BC2
:100BC0002C938FBFF6CF3FB7F89480917C01909122
:100BD0007D01A0917E01B0917F0126B5A89B05C043
:100BE0002F3F19F00196A11DB11D3FBFBA2FA92FAC
:100BF000982F8827BC01CD01620F711D811D911DA9
:100C000042E0660F771F881F991F4A95D1F7089514
:100C10008F929F92AF92BF92CF92DF92EF92FF920C
:100C20006B017C010E94E3054B015C01C114D104FE
:100C3000E104F104B9F00E94E305681979098A0911
:100C40009B09683E73408105910580F321E0C21A3B
:100C5000D108E108F10888EE880E83E0981EA11CF7
:100C6000B11CE4CFFF90EF90DF90CF90BF90AF909A
:100C70009F908F9008958F929F92AF92BF92CF9244
:100C8000DF92EF92FF920F931F93CF93DF936C014C
:100C90007B018A0180910B01882309F45CC080915B
:100CA0009501882309F457C08091870180FF05C012
:100CB0008091E00082608093E000E801B12C8AEF2F
:100CC000A82E93E0892E2AE3922E209711F4BB20C0
:100CD000D9F10E94D60381110AC0AA94AA20D9F1A1
:100CE00061E070E080E090E00E940806EECF8C1793
:100CF0001D0611F00CF08C2F9FB7F8948092E9003C
:100D00002091E80025FD02C09FBFDFCF282F30E0F3
:100D1000C21BD30BF701815020F041914093F100A9
:100D2000FACFE20EF31EBB2021F09092E800B12C26
:100D3000EBCF8091E80085FDE7CF9092E800BB24DF
:100D4000B394209709F3F3CF5D9884E680938601EE
:100D5000101611063CF081E090E0F6019383828347
:100D600010E000E0C801DF91CF911F910F91FF903B
:100D7000EF90DF90CF90BF90AF909F908F900895AD
:100D800038E0439FC0011124807E977030E043E03B
:100D9000359527954A95E1F7822B932B70E0762FB6
:100DA00066276627787F862B972B0895AF92BF9290
:100DB000CF92DF92EF92FF920F931F93CF93DF9327
:100DC0006C017B018B01040F151FEB015E01AE1856
:100DD000BF08C017D10759F06991D601ED91FC9178
:100DE0000190F081E02DC6010995892B79F7C501A5
:100DF000DF91CF911F910F91FF90EF90DF90CF90F7
:100E0000BF90AF900895EF92FF920F931F93DC0174
:100E10001A960D911C911B9718962D913C9119973C
:100E2000ED91FC910288F389E02D7B0150E040E0D8
:100E300070E060E009951F910F91FF90EF90089589
:100E4000FC01868D28E030E090E8882339F06EBD03
:100E500000000DB407FEFDCF8EB50895A1A1B2A18B
:100E600086A5462F4923A9F04C91842B8C93A3A1EE
:100E7000B4A18C9147A5842B8C93A3A1B4A14C91D0
:100E800087A5809584238C9396952150310931F75D
:100E900008954C9180958423E9CF08958CBD9DBD24
:100EA00008951F93CF93DF93EC01162F8E8D882327
:100EB00021F08F8D98A10E944E07EFA1F8A58081A7
:100EC00099A9892B8083EDA1FEA1908188A98095A5
:100ED00089238083612FCE010E942007EDA1FEA10E
:100EE000808198A9892B8083DF91CF911F910895EC
:100EF0001F93CF93DF93EC01162F8E8D882321F063
:100F00008F8D98A10E944E07EFA1F8A5908189A925
:100F1000809589238083EDA1FEA1908188A9809589
:100F200089238083612FCE010E942007EDA1FEA1BD
:100F3000808198A9892B8083DF91CF911F9108959B
:100F4000611103C060E20C94780761E2FCCFEF927C
:100F5000FF920F931F93CF93DF93EC01E62E142F94
:100F6000F22E6AE20E94780760E0CE010E945107EB
:100F70006AA96E0DCE010E94510760E0CE010E9469
:100F800051076AA96F0DCE010E9451076BE2CE0195
:100F90000E94780760E0CE010E9451076BA9610FA3
:100FA000CE010E94510760E0CE010E9451076BA95B
:100FB000600FCE010E9451076CE2CE01DF91CF910C
:100FC0001F910F91FF90EF900C947807AF92BF9212
:100FD000CF92DF92EF92FF920F931F93CF93DF9305
:100FE000EC015901680128853985621773070CF0F7
:100FF00066C08A859B85481759070CF060C0FB01C5
:10100000EA0DFB1D2E173F071CF45901A61AB70A5B
:101010009A012C0D3D1D821793071CF46C01C41A14
:10102000D50A8D8D823091F4C701982F8827990FAA
:10103000990F990F9701207E3770822B932BEF2CFD
:10104000FF24E694E694E694E82AF92A0FEF040FC9
:101050000C0D2FEF260F2A0DCE010E94A7078E8DB3
:10106000882321F08F8D98A10E944E07EFA1F8A54B
:10107000808199A9892B8083EDA1FEA1908188A907
:101080008095892380831C141D049CF4850110160F
:1010900011065CF46F2DCE010E9420076E2DCE014B
:1010A0000E94200701501109F2CF81E0C81AD1082F
:1010B000EACFEDA1FEA1808198A9892B8083DF91E1
:1010C000CF911F910F91FF90EF90DF90CF90BF9045
:1010D000AF900895CF92DF92EF92FF920F931F93FC
:1010E000CF93DF93EC0169017801888599856817B2
:1010F00079070CF052C02A853B85421753070CF044
:101100004CC09B012C0D3D1D821793071CF46C01F4
:10111000C61AD70A2FEF260F2C0D042FCE010E94DE
:10112000A7078D8D823091F4C701982F8827990FDA
:10113000990F990F9701207E3770822B932BEF2CFC
:10114000FF24E694E694E694E82AF92A8E8D882313
:1011500021F08F8D98A10E944E07EFA1F8A5808104
:1011600099A9892B8083EDA1FEA1908188A9809502
:101170008923808381E0C81AD10848F06F2DCE0101
:101180000E9420076E2DCE010E942007F3CFEDA113
:10119000FEA1808198A9892B8083DF91CF911F9137
:1011A0000F91FF90EF90DF90CF900895CF92DF9254
:1011B000EF92FF920F931F93CF93DF93EC0169019E
:1011C000780188859985681779070CF053C08A855E
:1011D0009B85481759070CF04DC09A012C0D3D1DF9
:1011E000821793071CF46C01C41AD50A0FEF040F81
:1011F0000C0D262FCE010E94A7078D8D823091F411
:10120000C701982F8827990F990F990F9701207E72
:101210003770822B932BEF2CFF24E694E694E69410
:10122000E82AF92A0F2D8E8D882321F08F8D98A121
:101230000E944E07EFA1F8A5808199A9892B808390
:10124000EDA1FEA1908188A980958923808381E00A
:10125000C81AD10848F0602FCE010E9420076E2DD9
:10126000CE010E942007F3CFEDA1FEA1808198A9B5
:10127000892B8083DF91CF911F910F91FF90EF9089
:10128000DF90CF900895EF92FF920F93CF93DF936B
:10129000EC01790177FD4BC088859985681779073E
:1012A0000CF045C057FD43C08A859B8548175907F8
:1012B000F4F501E0040F21E0260FCE010E94A707FC
:1012C0008E8D882321F08F8D98A10E944E07EFA16B
:1012D000F8A5808199A9892B8083EDA1FEA1908139
:1012E00088A98095892380838D8D823091F4C701F0
:1012F000982F8827990F990F990F9701207E3770A3
:10130000822B932BEF2CFF24E694E694E694E82AB4
:10131000F92A6F2DCE010E9420076E2DCE010E946A
:101320002007EDA1FEA1808198A9892B8083DF9100
:10133000CF910F91FF90EF90089508952F923F92D3
:101340004F925F926F927F928F929F92AF92BF92D5
:10135000CF92DF92EF92FF920F931F93CF93DF9381
:10136000CDB7DEB72C970FB6F894DEBF0FBECDBF5A
:101370009C838B836A3061F5DC0154968C91B8E0D4
:101380008B9F90011124EB81FC8186859785820FCC
:10139000931F978786871586148681E090E02C96A8
:1013A0000FB6F894DEBF0FBECDBFDF91CF911F9176
:1013B0000F91FF90EF90DF90CF90BF90AF909F90F4
:1013C0008F907F906F905F904F903F902F900895F7
:1013D0006D3019F32B813C813C872B87D9011C96FA
:1013E000CD90DC901D9718968D919C911997C816F9
:1013F000D9060CF07FC01E968D909C901F971A9670
:101400008D919C911B97881699060CF073C0549689
:10141000BC91B983AB2EB12CC601E6E0BE9F800D16
:10142000911D1124181619060CF064C0C50143E083
:10143000880F991F4A95E1F7880D991D181619060E
:101440000CF058C0D90152960D90BC91A02DBC83D0
:10145000AB83F9010088F189E02DFE83ED83F5E08F
:101460006F9FB001112426011A826C197D099B011E
:1014700024553F4F3A8729873A81E0E0353029F0FB
:10148000E985FA85E40DF51DE4911401712C612CB8
:101490008E2F90E098878F83E0FF6AC0AB85BC8574
:1014A000ED91FC91B981B13009F055C00084F1850E
:1014B000E02D2D813E81A401460D571DB2018B8583
:1014C0009C850995EF81F885F595E795FFEF6F1AF3
:1014D0007F0A2A0C3B1C28E062167104C9F63FEF14
:1014E000431A530ACA0CDB1C5A815F5F5A83563079
:1014F00009F0C2CFAB85BC8554964C915497242FEC
:1015000030E01C968D919C91B6E04B9F800D911D13
:101510001124EB85FC85958784874689442309F44B
:101520003CCF6AEF6203A001639F500D11246085D8
:101530007185460F571F481759070CF02ECF83E0CF
:10154000220F331F8A95E1F786859785280F391F6B
:101550003787268720CF0288F389E02DED80FE8033
:1015600085019501A101B6018B859C850995AACFBE
:10157000EB81FC812D813E81E217F30709F4A2CFB4
:10158000AB85BC85ED91FC91B981B13031F400841B
:10159000F185E02D2B813C818ECF0288F389E02DEF
:1015A000EB80FC80DDCFEF92FF920F931F93DC0165
:1015B0001A960D911C911B9718962D913C91199795
:1015C000ED91FC910288F389E02D7B0150E040E031
:1015D00070E060E009951F910F91FF90EF900895E2
:1015E0006F927F928F929F92AF92BF92CF92DF9233
:1015F000EF92FF920F931F93CF93DF936C015A01E9
:101600004801EB013B01620E731EC615D70574F449
:10161000D601ED91FC910484F585E02D87019401BC
:10162000A501BE01C60109952196EFCFDF91CF91AB
:101630001F910F91FF90EF90DF90CF90BF90AF90F0
:101640009F908F907F906F900895EF92FF920F93ED
:101650001F93260F371F21503109DC01ED91FC91BA
:101660000284F385E02D78018A0109951F910F917D
:10167000FF90EF900895EF92FF920F931F93240F26
:10168000351F21503109DC01ED91FC910284F38575
:10169000E02D780189019B0109951F910F91FF9021
:1016A000EF9008956F927F928F929F92AF92BF9228
:1016B000CF92DF92EF92FF920F931F93CF93DF931E
:1016C000EC016B015A0139014801E881F981068476
:1016D000F785E02D87010995A501480D591D415059
:1016E0005109E881F9810684F785E02D9301B6015F
:1016F000CE010995E881F9810484F585E02D9401F6
:10170000A501B601CE010995C60CD71CB6016150E2
:101710007109E881F9810484F585E02D9401A50122
:10172000CE010995DF91CF911F910F91FF90EF901E
:10173000DF90CF90BF90AF909F908F907F906F90F1
:1017400008952F923F924F925F926F927F928F9265
:101750009F92AF92BF92CF92DF92EF92FF920F9340
:101760001F93CF93DF9300D000D000D0CDB7DEB76A
:101770003C016A013E832D83FC82EB825801A41A4E
:10178000B50AB7FE03C0B194A194B1088D809E80C4
:10179000861A970A97FE03C09194819491088A143F
:1017A0009B045CF0902F812F0D811E819D838E8381
:1017B0009C2D8D2D6B01692F782F0C151D055CF06C
:1017C0009D818E817E836D83692F782F902F812F4D
:1017D0008601C92ED82E1601201A310A2B012D811F
:1017E0003E81421A530A57FE03C051944194510856
:1017F000710137FE03C03FEFE31AF30AF594E79453
:101800008D819E81861797075CF5A1E0B0E0BA83D1
:10181000A983C016D1064CF1D301ED91FC9100844F
:10182000F185E02D2B813C81A8016D817E818A1498
:101830009B041CF04D815E81B801C3010995E41839
:10184000F508F7FE0AC02D813E8189819A81280F13
:10185000391F3E832D83E20CF31C0F5F1F4FD9CF3E
:101860002FEF3FEF3A832983D4CF26960FB6F89413
:10187000DEBF0FBECDBFDF91CF911F910F91FF90C3
:10188000EF90DF90CF90BF90AF909F908F907F9020
:101890006F905F904F903F902F900895089590E043
:1018A00080E00895FC0101900020E9F73197AF0135
:1018B000481B590BBC0186EE91E00C94D6060E94A1
:1018C0003D151F920F920FB60F9211248F939F9385
:1018D0008091E1009091E100937F9093E10083FF7C
:1018E0000FC01092E90091E09093EB001092EC0091
:1018F00092E39093ED001092950198E09093F000A0
:1019000082FF22C093E09093E9009091F200992326
:1019100019F09AE39093E80090918601992341F0A1
:1019200090918601915090938601911101C05D9A2A
:1019300090919401992341F090919401915090934A
:101940009401911101C0289A84FF18C08091E2008F
:101950008E7E81608093E2008091E1008F7E809393
:10196000E100809187018E7E8061809387019F9145
:101970008F910F900FBE0F901F90189580FFF7CF9B
:101980008091E2008E7E80618093E2008091E10090
:101990008E7E8093E100809187018E7E8160E5CF0D
:1019A0001F920F920FB60F921124CF92DF92EF92F7
:1019B000FF920F931F932F933F934F935F936F93D8
:1019C0007F938F939F93AF93BF93EF93FF93CF93A7
:1019D000DF93CDB7DEB76C97DEBFCDBF1092E900C5
:1019E0008091E80083FF25C068E0CE0145960E9403
:1019F000340582EF8093E8008D8987FF39C090918C
:101A0000E80090FFFCCF982F907609F034C19E89B2
:101A10004F89588D2F89F88C911131C0803861F52C
:101A2000809185018093F1001092F1008EEF8093F8
:101A3000E8006C960FB6F894DEBF0FBECDBFDF9105
:101A4000CF91FF91EF91BF91AF919F918F917F9136
:101A50006F915F914F913F912F911F910F91FF9047
:101A6000EF90DF90CF900F900FBE0F901F901895C2
:101A70009EEF9093E800C7CF1092F100D5CF913040
:101A800059F48111D3CF4130510581F68091850100
:101A90008D7F80938501CACF933049F48111C6CFE1
:101AA0004130510519F6809185018260F2CF953061
:101AB00041F48091E80080FFFCCF20682093E30090
:101AC000B5CF963009F0A9C00B8D1C8D22E0109285
:101AD000E9001092830110928201F2122EC010923E
:101AE0008101109280010E9403051F8299E0998371
:101AF000FA8291E09E8390EA98879AEF99872091E5
:101B0000820130918301275F3F4F3C832B838D837C
:101B10001092E900109283011092820110938101CA
:101B20000093800149E050E0BE016F5F7F4F80E08D
:101B30000E94DD040E94030579CF10938101009378
:101B400080010E94E703DC0112960D911C910115A2
:101B5000110509F451C1D801ED91FC910480F58182
:101B6000E02DBE016B5E7F4FC8010995009709F01B
:101B70003EC1F80100851185EACFF3E0FF120EC0E7
:101B80008F89882309F440C0823061F440E86FE017
:101B900082EF96E00E94AA04811148CF81E28093EF
:101BA000EB0047CF813029F440E86BE086EE96E009
:101BB000F1CF833099F70E94E703DC011296ED9094
:101BC000FC908E010F5F1F4F6801E114F10479F062
:101BD000D701ED91FC910680F781E02DB801C70196
:101BE0000995080F111DF701E084F184EECFD801AB
:101BF0001C92F60101900020E9F73197BF016C19A2
:101C00007D0940E0C601C6CF60ED76E0FB0144915E
:101C100050E080E80E94DD0409CF973009F4BECF80
:101C2000983021F481E08093F10000CF993009F0E1
:101C3000FDCE837009F0B2CFE3E1F1E081E031E065
:101C400096E32191222371F08093E9003093EB0019
:101C5000DF0111972C912093EC009093ED008F5FA2
:101C6000873079F78EE78093EA001092EA008F8937
:101C700080939501DBCE8B8D9C8D1092E9001092A4
:101C80008301109282019093810180938001898D5C
:101C9000811192C08E899D89913A49F4813209F06F
:101CA0007DCF47E050E064E071E080E0B3CF913257
:101CB00009F074CF833269F48F89988DB0E0A0E089
:101CC0008093000190930101A0930201B09303015E
:101CD000ADCE803269F48091E80082FFFCCF67E0EE
:101CE00084E091E00E9434058BEF8093E8009ECE63
:101CF000823209F09BCE8F8980930B01EEEFFFE7D4
:101D0000859194918B3F9C4D51F1E0E0F8E08091FA
:101D1000040190910501A0910601B0910701803B5B
:101D20009440A105B105F1F480910B0180FD1AC02A
:101D3000EE3F8AE0F80789F587E797E7918380838C
:101D4000809160008093840188E19BE00FB6F89455
:101D5000A895809360000FBE9093600067CEEEEF71
:101D6000FAE0D5CF808191818737974709F05ECE21
:101D7000A8958091600088618093600080918401C3
:101D800080936000EE3F2AE0F20789F08091FE0A1E
:101D90009091FF0A9183808349CE8081918187371A
:101DA000980751F29093FF0A8093FE0AC5CF1092D4
:101DB000FF0A1092FE0A3ACE0E94E703DC01129657
:101DC0000D911C910115110509F4E8CED801ED9192
:101DD000FC910190F081E02DBE016B5E7F4FC80148
:101DE0000995811123CEF80100851185EBCF1816D6
:101DF00019060CF41BCED2CEF1E0FF12BECE64ED7C
:101E000076E004CF1F920F920FB60F9211242F93FA
:101E10003F938F939F93AF93BF938091780190915D
:101E20007901A0917A01B0917B013091770123E093
:101E3000230F2D3758F50196A11DB11D2093770171
:101E40008093780190937901A0937A01B0937B01FC
:101E500080917C0190917D01A0917E01B0917F01E4
:101E60000196A11DB11D80937C0190937D01A093EB
:101E70007E01B0937F01BF91AF919F918F913F9170
:101E80002F910F900FBE0F901F90189526E8230FEB
:101E90000296A11DB11DD2CF1F920F920FB60F92C5
:101EA00011248F939F93AF93BF9380916F01909173
:101EB0007001A0917101B0917201892B8A2B8B2B3B
:101EC00081F190916E01809100008927809300003C
:101ED00080916F0190917001A0917101B091720198
:101EE000181619061A061B069CF480916F01909132
:101EF0007001A0917101B09172010197A109B1091E
:101F000080936F0190937001A0937101B09372015F
:101F1000BF91AF919F918F910F900FBE0F901F9027
:101F20001895809171008D7F8093710080916E0172
:101F3000909100008095892380930000E9CFE6E925
:101F4000F1E01382128288EE93E0A0E0B0E0848397
:101F50009583A683B7838DE191E0918380832FEFF2
:101F60003FEF35872487E6EEF1E01382128240E8E6
:101F700050E05583448360EA70E077836683158A76
:101F8000158614861786168681E0848B338B228B08
:101F9000318B208B868B90E5978F10A297E091A7CD
:101FA00012A683A7868F15A614A68FE291E09183CF
:101FB0008083718760875387428761E082E10E9456
:101FC000B20561E083E10E94B20561E084E10E9414
:101FD000B20561E085E10E94B20561E085E00E9402
:101FE000B20561E08AE00E94B20561E089E00C94EC
:101FF000B205CF93DF93CDB7DEB762970FB6F894F3
:10200000DEBF0FBECDBF789484B5826084BD84B539
:10201000816084BD85B5826085BD85B5816085BDE3
:1020200080916E00816080936E001092810080919B
:102030008100826080938100809181008160809323
:102040008100809180008160809380008091910068
:1020500082608093910080919100816080939100D3
:10206000809190008160809390008091C100846095
:102070008093C1008091C10082608093C1008091F3
:10208000C10081608093C1008091C3008160809312
:10209000C3008091C00082608093C0008091C20024
:1020A00081608093C20080917A00846080937A007E
:1020B00080917A00826080937A0080917A008160BA
:1020C00080937A0080917A00806880937A001092E1
:1020D000950110928501109287018091D70081604F
:1020E0008093D70080EA8093D80089B5806189BD4C
:1020F00089B5826089BD09B400FEFDCF61E070E062
:1021000080E090E00E9408068091D8008F7C80617A
:102110008093D8008091E000807F8093E0008091E0
:10212000E1008E7E8093E1008DE08093E200559A7D
:10213000209A109219021092180261E08091100208
:102140000E94B20561E080910F020E94B205809169
:102150000F0290E0FC01EF5CF94FE491F0E0EE0F2C
:10216000FF1FED5DF94F2591349130930C022093C0
:102170000B02FC01E05BF94FE491E09316028091C1
:10218000100290E0FC01EF5CF94FE491F0E0EE0FFB
:10219000FF1FED5DF94F2591349130930E0220938E
:1021A0000D02FC01E05BF94FE491E093170280918E
:1021B0000402882309F492C01FB7F8948091730138
:1021C000811127C0E2E4F6E08491E1E6F6E0949123
:1021D000E82FF0E0EE0FFF1FEB5EF94FA591B491F1
:1021E000EC91E92321F461E081E10E94410561E085
:1021F00081E10E94B2058CB580618CBD8CB5806494
:102200008CBD61E08FE00E94B20561E080E10E9438
:10221000B205809173018F5F809373011FBF80E5CA
:102220008093050210920602E0910B02F0910C02DD
:10223000908180911602809589238083809111027C
:10224000882321F161E00E94B20561E080911102D2
:102250000E94410564EF71E080E090E00E94080672
:1022600060E0809111020E94410564EF71E080E01E
:1022700090E00E94080661E0809111020E944105F1
:1022800064EF71E080E090E00E940806E7EAF5E084
:10229000D49008EA15E0DA94FFEFDF1609F47EC067
:1022A000F801649186EE91E00E9478075801F2E00F
:1022B000AF0EB11CF8013196C4900C2D0F7775014B
:1022C000102F115008F453C0F701649186EE91E08D
:1022D0000E945107FFEFEF1AFF0AF3CF61E08091F0
:1022E00013020E94B20561E0809112020E94B205C1
:1022F0008091130290E0FC01EF5CF94FE491F0E073
:10230000EE0FFF1FED5DF94FA591B491B0930A0256
:10231000A0930902805B994FFC0184918093150280
:102320002091120230E0F901EF5CF94FE491F0E006
:10233000EE0FFF1FED5DF94F459154915093080248
:1023400040930702F901E05BF94FE491E093140236
:10235000EC9180958E238C93E0910702F091080216
:102360009081809114028095892380835DCF0A0D2E
:102370001B2D111DC7FE8FCF78018FEFE81AF80AC9
:10238000F801649170E06F3F710511F464EF71E042
:1023900090E080E00E94080687017DCF66E386EE2C
:1023A00091E00E94780711E01093FB0168EA86EE45
:1023B00091E00E94510780EA90E09093EF018093B2
:1023C000EE0180E890E09093F1018093F00170E0DD
:1023D00060E086EE91E00E9403071093FF0186EB18
:1023E00098EC9093FE018093FD019093F701809308
:1023F000F6019093F9018093F80182E08093FA014D
:102400001092FC011092F3011092F2011092F5016A
:102410001092F40189E491E00E94520C85E08093CF
:10242000FA013DE0432E36E0532ECE0101966C01B9
:10243000AA24AA94BA2C5EE1852E912C60E0662E27
:1024400060E0762E60E082E10E94410561E083E178
:102450000E94410561E084E10E94410560E085E160
:102460000E944105F201849120917B00982F990FE1
:10247000990F90722F7D922B90937B0087708064D0
:1024800080937C0080917A00806480937A008091B0
:102490007A0086FDFCCF2091780030917900A4EF7E
:1024A000B1E00E944613DC01CB012AE0B595A79567
:1024B000979587952A95D1F7C2974AE0B6010E9471
:1024C000DA12F60101900020E9F731978F010C191B
:1024D0001D09B8016F5F7F4F90E080E00E9480147B
:1024E0007C01009749F0FC011082B6010E944B1557
:1024F0000115110509F04EC01092740111E01093FE
:10250000FF01B092FE01A092FD01B092F701A092EE
:10251000F601B092F901A092F8011092FC0110921C
:10252000F3011092F2019092F5018092F40184E798
:1025300091E00E94520C68EE73E080E090E00E940F
:1025400008061093FF011092FE011092FD011092F7
:10255000F7011092F6011092F9011092F801109211
:10256000FC011092F3011092F2019092F501809219
:10257000F40184E791E00E94520CE114F10419F097
:10258000C7010E94F7136114710409F45BCF0E9424
:10259000000058CF0130110511F002E010E0A80151
:1025A000B70184E791E00E945215F801EC58FE4F04
:1025B0001082A4CFBB274A3031F4992322F4BDE224
:1025C000909581959F4F0C94E612BB27FB015527F0
:1025D000AA27880F991FAA1FA41710F0A41B839580
:1025E0005051B9F7A05DAA3308F0A95DA1930097F7
:1025F00079F7B111B1931192CB010C94FF12DC0168
:10260000FC01672F71917723E1F7329704C07C9129
:102610006D9370836291AE17BF07C8F308952F9230
:102620003F924F925F926F927F928F929F92AF9262
:10263000BF92CF92DF92EF92FF920F931F93CF93AF
:10264000DF93CDB7DEB7CA1BDB0B0FB6F894DEBF46
:102650000FBECDBF09942A88398848885F846E846C
:102660007D848C849B84AA84B984C884DF80EE80B6
:10267000FD800C811B81AA81B981CE0FD11D0FB6BF
:10268000F894DEBF0FBECDBFED010895A29FB0014B
:10269000B39FC001A39F700D811D1124911DB29F96
:1026A000700D811D1124911D0895EE0FFF1F0590DF
:1026B000F491E02D09940F931F93CF93DF93823011
:1026C000910510F482E090E0E0911C02F0911D026F
:1026D00030E020E0B0E0A0E0309799F4211531051A
:1026E00009F44AC0281B390B24303105D8F58A81FA
:1026F0009B816115710589F1FB0193838283FE0142
:1027000011C0408151810281138148175907E0F0BF
:102710004817590799F4109761F012960C93129785
:1027200013961C933296CF01DF91CF911F910F9199
:10273000089500931C0210931D02F4CF211531055A
:1027400051F04217530738F0A901DB019A01BD018E
:10275000DF01F801C1CFEF01F9CF90931D02809303
:102760001C02CDCFFE01E20FF31F81939193225003
:10277000310939832883D7CF20911A0230911B0267
:10278000232B41F420910E0130910F0130931B0255
:1027900020931A0220910C0130910D012115310571
:1027A00041F42DB73EB74091100150911101241B07
:1027B000350BE0911A02F0911B02E217F307A0F427
:1027C0002E1B3F0B2817390778F0AC014E5F5F4F87
:1027D0002417350748F04E0F5F1F50931B0240939C
:1027E0001A02819391939FCFF0E0E0E09CCFCF93CA
:1027F000DF930097E9F0FC01329713821282A091D7
:102800001C02B0911D02ED0130E020E01097A1F410
:1028100020813181820F931F20911A0230911B0277
:102820002817390709F061C0F0931B02E0931A02E0
:10283000DF91CF910895EA01CE17DF07E8F54A81CD
:102840005B819E0141155105B1F7E901FB83EA83E4
:1028500049915991C40FD51FEC17FD0761F4808190
:1028600091810296840F951FE90199838883828163
:1028700093819B838A83F0E0E0E012968D919C9196
:1028800013970097B9F52D913C911197CD010296C0
:10289000820F931F20911A0230911B0228173907CB
:1028A00039F6309751F510921D0210921C02B09328
:1028B0001B02A0931A02BCCFD383C28340815181F3
:1028C000840F951FC817D90761F44E5F5F4F888149
:1028D0009981480F591F518340838A819B8193833B
:1028E00082832115310509F0B0CFF0931D02E093EA
:1028F0001C029ECFFD01DC01C0CF13821282D7CF14
:10290000B0E0A0E0E6E8F4E10C9411138C0100972C
:1029100051F4CB010E945B138C01C801CDB7DEB727
:10292000E0E10C942D13FC01E60FF71F9C012250EF
:102930003109E217F30708F49DC0D901CD91DC916C
:102940001197C617D70798F0C530D10530F3CE01DF
:1029500004978617970708F3C61BD70B2297C193D6
:10296000D1936D937C93CF010E94F713D6CF5B0177
:10297000AC1ABD0A4C018C0E9D1EA0911C02B09198
:102980001D02512C412CF12CE12C109731F5809136
:102990001A0290911B028815990509F05CC0461631
:1029A000570608F058C080910C0190910D010097D6
:1029B00041F48DB79EB74091100150911101841BD5
:1029C000950BE817F90708F055C0F0931B02E09348
:1029D0001A02F90171836083A0CF8D919C911197A8
:1029E00012966C90129713967C901397A815B905C0
:1029F00059F56C0142E0C40ED11CCA14DB0420F16D
:102A0000AC014A195B09DA011296159780F06282CF
:102A1000738251834083D9016D937C93E114F10457
:102A200071F0D7011396FC93EE93129776CF22960E
:102A30008C0F9D1FF90191838083F301EFCFF093F9
:102A40001D02E0931C0269CF4816590608F42C01B8
:102A50007D01D3019ACFCB010E945B137C010097CB
:102A600049F0AE01B8010E944215C8010E94F71357
:102A7000870153CF10E000E050CF81E090E0F89460
:102A80000C946115FB01DC0102C001900D924150D4
:102A90005040D8F70895FB01DC0101900D92002011
:102AA000E1F70895FB01DC014150504048F00190EE
:102AB0000D920020C9F701C01D9241505040E0F72F
:062AC0000895F894FFCF19
:102AC600FFFFFFFF00E100000000000000001E0203
:102AD600800000C1808100000000000000FB033B75
:102AE600061C041104620420043E04000000009E3B
:102AF60009D6064F0C4E0C4309A10BD6086A08529C
:102B06000BE6070307A007C0064465677265657391
:0A2B160020696E2043203A0A2000D7
:00000001FF
